0       Date de l'image de la banque de données: 2025-07-31                                                                                                                                                                                                                                                                                                                                                                                                                                                                                                                                                                                                                                                                                                                                                                                                                                                                                                         
101023M Les Îles-de-la-Madeleine                                  R                                 01Îles-de-la-Madeleine          02Gaspé                         11Gaspésie--Îles-de-la-Madeleine01Îles-de-la-Madeleine          001Îles-de-la-Madeleine          01Communauté maritime des Îles-d11Gaspésie--Îles-de-la-Madeleine0133011Gaspésie--Îles-de-la-Madeleine01 Communauté maritime des Îles-d882 CS Eastern Shores             112  RTS des Îles                                                00012481                                   858Îles-de-la-Madeleine                                           20020101G01-39311N05 472261520000154942003392439011211Îles-de-la-Madeleine                                   811 CSS des Îles                       049Les Îles-de-la-Madeleine                               1121RLS des Îles-de-la-Madeleine                                                           
101042M Grosse-Île                                                R                                 01Îles-de-la-Madeleine          02Gaspé                         11Gaspésie--Îles-de-la-Madeleine01Îles-de-la-Madeleine          001Îles-de-la-Madeleine          01Communauté maritime des Îles-d11Gaspésie--Îles-de-la-Madeleine0161011Gaspésie--Îles-de-la-Madeleine01 Communauté maritime des Îles-d882 CS Eastern Shores             112  RTS des Îles                                                00000456                                   858Îles-de-la-Madeleine                                           20060101G05-47311N12 473761300000032440000009747411211Îles-de-la-Madeleine                                   811 CSS des Îles                       049Les Îles-de-la-Madeleine                               1121RLS des Îles-de-la-Madeleine                                                           
102005V Percé                                                     R                                 02Gaspé                         02Gaspé                         11Gaspésie--Îles-de-la-Madeleine02Gaspésie                      002Gaspé-Est                     02Le Rocher-Percé               11Gaspésie--Îles-de-la-Madeleine0215011Gaspésie--Îles-de-la-Madeleine02 Le Rocher-Percé               882 CS Eastern Shores             111  RTS de la Gaspésie                                          00003122                                   854Gaspé                         02 Le Rocher-Percé               19710101      122A09 483164120000431446000055471411132Gaspé                                                  812 CSS des Chic-Chocs                 050Le Rocher-Percé                                        1114RLS du Rocher-Percé                                                                    
302005V Percé                                                     R                                 02Gaspé                         02Gaspé                         11Gaspésie--Îles-de-la-Madeleine02Gaspésie                      002Gaspé-Est                     02Le Rocher-Percé               11Gaspésie--Îles-de-la-Madeleine0215011Gaspésie--Îles-de-la-Madeleine02 Le Rocher-Percé               882 CS Eastern Shores             111  RTS de la Gaspésie                                          00003122                                   11141Pabok                                                                                                                                                                                                                                                                                                                                                                 
402005V Percé                                                     R                                 02Gaspé                         02Gaspé                         11Gaspésie--Îles-de-la-Madeleine02Gaspésie                      002Gaspé-Est                     02Le Rocher-Percé               11Gaspésie--Îles-de-la-Madeleine0215011Gaspésie--Îles-de-la-Madeleine02 Le Rocher-Percé               882 CS Eastern Shores             111  RTS de la Gaspésie                                          00003122                                   1113RLS de La Côte-de-Gaspé                                                                                                                                                                                                                                                                                                                                                
A02005V Percé                                                     R                                 02Gaspé                         02Gaspé                         11Gaspésie--Îles-de-la-Madeleine02Gaspésie                      002Gaspé-Est                     02Le Rocher-Percé               11Gaspésie--Îles-de-la-Madeleine0215011Gaspésie--Îles-de-la-Madeleine02 Le Rocher-Percé               882 CS Eastern Shores             111  RTS de la Gaspésie                                          00003122                                   813 CSS René-Lévesque                                                                                                                                                                                                                                                                                                                                                      
102010M Sainte-Thérèse-de-Gaspé                                   R                                 02Gaspé                         02Gaspé                         11Gaspésie--Îles-de-la-Madeleine02Gaspésie                      002Gaspé-Est                     02Le Rocher-Percé               11Gaspésie--Îles-de-la-Madeleine0218011Gaspésie--Îles-de-la-Madeleine02 Le Rocher-Percé               882 CS Eastern Shores             111  RTS de la Gaspésie                                          00001011                                   854Gaspé                         02 Le Rocher-Percé               19300906      322A08 482464230000035152000003522311141Pabok                                                  813 CSS René-Lévesque                  050Le Rocher-Percé                                        1114RLS du Rocher-Percé                                                                    
102015V Grande-Rivière                                            R                                 02Gaspé                         02Gaspé                         11Gaspésie--Îles-de-la-Madeleine02Gaspésie                      002Gaspé-Est                     02Le Rocher-Percé               11Gaspésie--Îles-de-la-Madeleine0220011Gaspésie--Îles-de-la-Madeleine02 Le Rocher-Percé               882 CS Eastern Shores             111  RTS de la Gaspésie                                          00003339                                   854Gaspé                         02 Le Rocher-Percé               19740921      222A08 482464290000087249000010586611141Pabok                                                  813 CSS René-Lévesque                  050Le Rocher-Percé                                        1114RLS du Rocher-Percé                                                                    
102028V Chandler                                                  R                                 02Gaspé                         02Gaspé                         11Gaspésie--Îles-de-la-Madeleine02Gaspésie                      002Gaspé-Est                     02Le Rocher-Percé               11Gaspésie--Îles-de-la-Madeleine0229011Gaspésie--Îles-de-la-Madeleine02 Le Rocher-Percé               882 CS Eastern Shores             111  RTS de la Gaspésie                                          00007420                                   850Bonaventure                   02 Le Rocher-Percé               20010627G01-26222A07 482064400000417965000043869511141Pabok                                                  813 CSS René-Lévesque                  050Le Rocher-Percé                                        1114RLS du Rocher-Percé                                                                    
102047M Port-Daniel--Gascons                                      R                                 04Bonaventure No 1              04Bonaventure                   11Gaspésie--Îles-de-la-Madeleine02Gaspésie                      004Bonaventure                   02Le Rocher-Percé               11Gaspésie--Îles-de-la-Madeleine0414011Gaspésie--Îles-de-la-Madeleine02 Le Rocher-Percé               882 CS Eastern Shores             111  RTS de la Gaspésie                                          00002287                                   850Bonaventure                   02 Le Rocher-Percé               20010117G01-03322A02 481064580000298740000033477711141Pabok                                                  813 CSS René-Lévesque                  050Le Rocher-Percé                                        1114RLS du Rocher-Percé                                                                    
102902NOMont-Alexandre                                            R                                 02Gaspé                         02Gaspé                         11Gaspésie--Îles-de-la-Madeleine02Gaspésie                      002Gaspé-Est                     02Le Rocher-Percé               11Gaspésie--Îles-de-la-Madeleine0290911Gaspésie--Îles-de-la-Madeleine02 Le Rocher-Percé               882 CS Eastern Shores             111  RTS de la Gaspésie                                          00000000                                   854Gaspé                         02 Le Rocher-Percé               18550701      322A10 483264560001803293000180750111141Pabok                                                  813 CSS René-Lévesque                  050Le Rocher-Percé                                        1114RLS du Rocher-Percé                                                                    
103005V Gaspé                                                     R                                 02Gaspé                         02Gaspé                         11Gaspésie--Îles-de-la-Madeleine02Gaspésie                      002Gaspé-Est                     03La Côte-de-Gaspé              11Gaspésie--Îles-de-la-Madeleine0250011Gaspésie--Îles-de-la-Madeleine03 La Côte-de-Gaspé              882 CS Eastern Shores             111  RTS de la Gaspésie                                          00015539                                   854Gaspé                         03 La Côte-de-Gaspé              19710101      122A16 484964280001118655000135621611132Gaspé                                                  812 CSS des Chic-Chocs                 010La Côte-de-Gaspé                                       1113RLS de La Côte-de-Gaspé                                                                
C03005V Gaspé                                                     R                                 02Gaspé                         02Gaspé                         11Gaspésie--Îles-de-la-Madeleine02Gaspésie                      002Gaspé-Est                     03La Côte-de-Gaspé              11Gaspésie--Îles-de-la-Madeleine0250011Gaspésie--Îles-de-la-Madeleine03 La Côte-de-Gaspé              882 CS Eastern Shores             111  RTS de la Gaspésie                                          00015539                                   03Sainte-Anne-des-Monts                                                                                                                                                                                                                                                                                                                                                    
103010CTCloridorme                                                R                                 03Sainte-Anne-des-Monts         02Gaspé                         11Gaspésie--Îles-de-la-Madeleine02Gaspésie                      002Gaspé-Est                     03La Côte-de-Gaspé              11Gaspésie--Îles-de-la-Madeleine0265011Gaspésie--Îles-de-la-Madeleine03 La Côte-de-Gaspé              882 CS Eastern Shores             111  RTS de la Gaspésie                                          00000624                                   854Gaspé                         03 La Côte-de-Gaspé              18850101      322H02 491064500000158831000016139111131Grande-Vallée                                          812 CSS des Chic-Chocs                 010La Côte-de-Gaspé                                       1113RLS de La Côte-de-Gaspé                                                                
103015M Petite-Vallée                                             R                                 03Sainte-Anne-des-Monts         02Gaspé                         11Gaspésie--Îles-de-la-Madeleine02Gaspésie                      002Gaspé-Est                     03La Côte-de-Gaspé              11Gaspésie--Îles-de-la-Madeleine0270011Gaspésie--Îles-de-la-Madeleine03 La Côte-de-Gaspé              882 CS Eastern Shores             111  RTS de la Gaspésie                                          00000155                                   854Gaspé                         03 La Côte-de-Gaspé              19570101      322H03 491365020000040273000004080611131Grande-Vallée                                          812 CSS des Chic-Chocs                 010La Côte-de-Gaspé                                       1113RLS de La Côte-de-Gaspé                                                                
103020M Grande-Vallée                                             R                                 03Sainte-Anne-des-Monts         02Gaspé                         11Gaspésie--Îles-de-la-Madeleine02Gaspésie                      002Gaspé-Est                     03La Côte-de-Gaspé              11Gaspésie--Îles-de-la-Madeleine0275011Gaspésie--Îles-de-la-Madeleine03 La Côte-de-Gaspé              882 CS Eastern Shores             111  RTS de la Gaspésie                                          00001067                                   854Gaspé                         03 La Côte-de-Gaspé              19270915      322H03 491365070000144462000014492611131Grande-Vallée                                          812 CSS des Chic-Chocs                 010La Côte-de-Gaspé                                       1113RLS de La Côte-de-Gaspé                                                                
103025V Murdochville                                              R                                 03Sainte-Anne-des-Monts         02Gaspé                         11Gaspésie--Îles-de-la-Madeleine02Gaspésie                      003Gaspé-Ouest                   03La Côte-de-Gaspé              11Gaspésie--Îles-de-la-Madeleine0320011Gaspésie--Îles-de-la-Madeleine03 La Côte-de-Gaspé              882 CS Eastern Shores             111  RTS de la Gaspésie                                          00000617                                   854Gaspé                         03 La Côte-de-Gaspé              19530715      122A14 485765290000062754000006435511133Murdochville                                           812 CSS des Chic-Chocs                 010La Côte-de-Gaspé                                       1113RLS de La Côte-de-Gaspé                                                                
103902NORivière-Saint-Jean                                        R                                 02Gaspé                         02Gaspé                         11Gaspésie--Îles-de-la-Madeleine02Gaspésie                      002Gaspé-Est                     03La Côte-de-Gaspé              11Gaspésie--Îles-de-la-Madeleine0291911Gaspésie--Îles-de-la-Madeleine03 La Côte-de-Gaspé              882 CS Eastern Shores             111  RTS de la Gaspésie                                          00000000                                   854Gaspé                         03 La Côte-de-Gaspé              18550701      322A14 485365020001744308000175620911132Gaspé                                                  812 CSS des Chic-Chocs                 010La Côte-de-Gaspé                                       1113RLS de La Côte-de-Gaspé                                                                
C03902NORivière-Saint-Jean                                        R                                 02Gaspé                         02Gaspé                         11Gaspésie--Îles-de-la-Madeleine02Gaspésie                      002Gaspé-Est                     03La Côte-de-Gaspé              11Gaspésie--Îles-de-la-Madeleine0291911Gaspésie--Îles-de-la-Madeleine03 La Côte-de-Gaspé              882 CS Eastern Shores             111  RTS de la Gaspésie                                          00000000                                   03Sainte-Anne-des-Monts                                                                                                                                                                                                                                                                                                                                                    
103904NOCollines-du-Basque                                        R                                 03Sainte-Anne-des-Monts         02Gaspé                         11Gaspésie--Îles-de-la-Madeleine02Gaspésie                      003Gaspé-Ouest                   03La Côte-de-Gaspé              11Gaspésie--Îles-de-la-Madeleine0390911Gaspésie--Îles-de-la-Madeleine03 La Côte-de-Gaspé              882 CS Eastern Shores             111  RTS de la Gaspésie                                          00000000                                   854Gaspé                         03 La Côte-de-Gaspé              18550701      322A14 485765160000815752000082040211132Gaspé                                                  812 CSS des Chic-Chocs                 010La Côte-de-Gaspé                                       1113RLS de La Côte-de-Gaspé                                                                
104005M Sainte-Madeleine-de-la-Rivière-Madeleine                  R                                 03Sainte-Anne-des-Monts         02Gaspé                         11Gaspésie--Îles-de-la-Madeleine02Gaspésie                      003Gaspé-Ouest                   04La Haute-Gaspésie             11Gaspésie--Îles-de-la-Madeleine0333011Gaspésie--Îles-de-la-Madeleine04 La Haute-Gaspésie             882 CS Eastern Shores             111  RTS de la Gaspésie                                          00000275                                   854Gaspé                         04 La Haute-Gaspésie             19160101      322H03 491465210000264518000026848011131Grande-Vallée                                          812 CSS des Chic-Chocs                 031La Haute-Gaspésie                                      1113RLS de La Côte-de-Gaspé                                                                
104010M Saint-Maxime-du-Mont-Louis                                R                                 03Sainte-Anne-des-Monts         02Gaspé                         11Gaspésie--Îles-de-la-Madeleine02Gaspésie                      003Gaspé-Ouest                   04La Haute-Gaspésie             11Gaspésie--Îles-de-la-Madeleine0337011Gaspésie--Îles-de-la-Madeleine04 La Haute-Gaspésie             882 CS Eastern Shores             111  RTS de la Gaspésie                                          00001025                                   854Gaspé                         04 La Haute-Gaspésie             18840610      322H04 491365430000230144000023217711121Denis-Riverin                                          812 CSS des Chic-Chocs                 031La Haute-Gaspésie                                      1112RLS de la Haute-Gaspésie                                                               
104015VLMont-Saint-Pierre                                         R                                 03Sainte-Anne-des-Monts         02Gaspé                         11Gaspésie--Îles-de-la-Madeleine02Gaspésie                      003Gaspé-Ouest                   04La Haute-Gaspésie             11Gaspésie--Îles-de-la-Madeleine0340011Gaspésie--Îles-de-la-Madeleine04 La Haute-Gaspésie             882 CS Eastern Shores             111  RTS de la Gaspésie                                          00000196                                   854Gaspé                         04 La Haute-Gaspésie             19470101      322H04 491365470000051439000005169711121Denis-Riverin                                          812 CSS des Chic-Chocs                 031La Haute-Gaspésie                                      1112RLS de la Haute-Gaspésie                                                               
104020M Rivière-à-Claude                                          R                                 03Sainte-Anne-des-Monts         02Gaspé                         11Gaspésie--Îles-de-la-Madeleine02Gaspésie                      003Gaspé-Ouest                   04La Haute-Gaspésie             11Gaspésie--Îles-de-la-Madeleine0345011Gaspésie--Îles-de-la-Madeleine04 La Haute-Gaspésie             882 CS Eastern Shores             111  RTS de la Gaspésie                                          00000153                                   854Gaspé                         04 La Haute-Gaspésie             19231218      322H04 491365530000155916000015603611121Denis-Riverin                                          812 CSS des Chic-Chocs                 031La Haute-Gaspésie                                      1112RLS de la Haute-Gaspésie                                                               
104025VLMarsoui                                                   R                                 03Sainte-Anne-des-Monts         02Gaspé                         11Gaspésie--Îles-de-la-Madeleine02Gaspésie                      003Gaspé-Ouest                   04La Haute-Gaspésie             11Gaspésie--Îles-de-la-Madeleine0355011Gaspésie--Îles-de-la-Madeleine04 La Haute-Gaspésie             882 CS Eastern Shores             111  RTS de la Gaspésie                                          00000282                                   854Gaspé                         04 La Haute-Gaspésie             19500101      322G01 491266040000176817000017839911121Denis-Riverin                                          812 CSS des Chic-Chocs                 031La Haute-Gaspésie                                      1112RLS de la Haute-Gaspésie                                                               
104030M La Martre                                                 R                                 03Sainte-Anne-des-Monts         02Gaspé                         11Gaspésie--Îles-de-la-Madeleine02Gaspésie                      003Gaspé-Ouest                   04La Haute-Gaspésie             11Gaspésie--Îles-de-la-Madeleine0358011Gaspésie--Îles-de-la-Madeleine04 La Haute-Gaspésie             882 CS Eastern Shores             111  RTS de la Gaspésie                                          00000182                                   854Gaspé                         04 La Haute-Gaspésie             19231218      322G01 491266100000178380000017919011121Denis-Riverin                                          812 CSS des Chic-Chocs                 031La Haute-Gaspésie                                      1112RLS de la Haute-Gaspésie                                                               
104037V Sainte-Anne-des-Monts                                     R                                 03Sainte-Anne-des-Monts         02Gaspé                         11Gaspésie--Îles-de-la-Madeleine02Gaspésie                      003Gaspé-Ouest                   04La Haute-Gaspésie             11Gaspésie--Îles-de-la-Madeleine0366011Gaspésie--Îles-de-la-Madeleine04 La Haute-Gaspésie             882 CS Eastern Shores             111  RTS de la Gaspésie                                          00006161                                   854Gaspé                         04 La Haute-Gaspésie             20000202G00-05222G01 490766290000264592000033954611121Denis-Riverin                                          812 CSS des Chic-Chocs                 031La Haute-Gaspésie                                      1112RLS de la Haute-Gaspésie                                                               
104047V Cap-Chat                                                  R                                 03Sainte-Anne-des-Monts         02Gaspé                         11Gaspésie--Îles-de-la-Madeleine02Gaspésie                      003Gaspé-Ouest                   04La Haute-Gaspésie             11Gaspésie--Îles-de-la-Madeleine0377011Gaspésie--Îles-de-la-Madeleine04 La Haute-Gaspésie             882 CS Eastern Shores             111  RTS de la Gaspésie                                          00002560                                   854Gaspé                         04 La Haute-Gaspésie             20000315G00-11222G02 490566410000180978000020933611121Denis-Riverin                                          812 CSS des Chic-Chocs                 031La Haute-Gaspésie                                      1112RLS de la Haute-Gaspésie                                                               
C04047V Cap-Chat                                                  R                                 03Sainte-Anne-des-Monts         02Gaspé                         11Gaspésie--Îles-de-la-Madeleine02Gaspésie                      003Gaspé-Ouest                   04La Haute-Gaspésie             11Gaspésie--Îles-de-la-Madeleine0377011Gaspésie--Îles-de-la-Madeleine04 La Haute-Gaspésie             882 CS Eastern Shores             111  RTS de la Gaspésie                                          00002560                                   06Matane                                                                                                                                                                                                                                                                                                                                                                   
D04047V Cap-Chat                                                  R                                 03Sainte-Anne-des-Monts         02Gaspé                         11Gaspésie--Îles-de-la-Madeleine02Gaspésie                      003Gaspé-Ouest                   04La Haute-Gaspésie             11Gaspésie--Îles-de-la-Madeleine0377011Gaspésie--Îles-de-la-Madeleine04 La Haute-Gaspésie             882 CS Eastern Shores             111  RTS de la Gaspésie                                          00002560                                   07Rimouski                                                                                                                                                                                                                                                                                                                                                                 
104902NOMont-Albert                                               R                                 03Sainte-Anne-des-Monts         02Gaspé                         11Gaspésie--Îles-de-la-Madeleine02Gaspésie                      003Gaspé-Ouest                   04La Haute-Gaspésie             11Gaspésie--Îles-de-la-Madeleine0391911Gaspésie--Îles-de-la-Madeleine04 La Haute-Gaspésie             882 CS Eastern Shores             111  RTS de la Gaspésie                                          00000181                                   854Gaspé                         04 La Haute-Gaspésie             18550701      322A13 485265560003465089000349015411121Denis-Riverin                                          812 CSS des Chic-Chocs                 031La Haute-Gaspésie                                      1112RLS de la Haute-Gaspésie                                                               
104904NOCoulée-des-Adolphe                                        R                                 03Sainte-Anne-des-Monts         02Gaspé                         11Gaspésie--Îles-de-la-Madeleine02Gaspésie                      006Matane                        04La Haute-Gaspésie             11Gaspésie--Îles-de-la-Madeleine0692911Gaspésie--Îles-de-la-Madeleine04 La Haute-Gaspésie             882 CS Eastern Shores             111  RTS de la Gaspésie                                          00000000                                   854Gaspé                         04 La Haute-Gaspésie             18550701      322B15 485766370000087277000008774211121Denis-Riverin                                          812 CSS des Chic-Chocs                 031La Haute-Gaspésie                                      1112RLS de la Haute-Gaspésie                                                               
105010M Shigawake                                                 R                                 04Bonaventure No 1              04Bonaventure                   11Gaspésie--Îles-de-la-Madeleine02Gaspésie                      004Bonaventure                   05Bonaventure                   11Gaspésie--Îles-de-la-Madeleine0418011Gaspésie--Îles-de-la-Madeleine05 Bonaventure                   882 CS Eastern Shores             111  RTS de la Gaspésie                                          00000332                                   850Bonaventure                   05 Bonaventure                   19241215      322A03 480565040000075793000007580811112Bonaventure                                            813 CSS René-Lévesque                  004Bonaventure                                            1111RLS de la Baie-des-Chaleurs                                                            
105015CTSaint-Godefroi                                            R                                 04Bonaventure No 1              04Bonaventure                   11Gaspésie--Îles-de-la-Madeleine02Gaspésie                      004Bonaventure                   05Bonaventure                   11Gaspésie--Îles-de-la-Madeleine0419011Gaspésie--Îles-de-la-Madeleine05 Bonaventure                   882 CS Eastern Shores             111  RTS de la Gaspésie                                          00000356                                   850Bonaventure                   05 Bonaventure                   19140101      322A03 480465060000064015000006403911112Bonaventure                                            813 CSS René-Lévesque                  004Bonaventure                                            1111RLS de la Baie-des-Chaleurs                                                            
105020M Hope Town                                                 R                                 04Bonaventure No 1              04Bonaventure                   11Gaspésie--Îles-de-la-Madeleine02Gaspésie                      004Bonaventure                   05Bonaventure                   11Gaspésie--Îles-de-la-Madeleine0420011Gaspésie--Îles-de-la-Madeleine05 Bonaventure                   882 CS Eastern Shores             111  RTS de la Gaspésie                                          00000336                                   850Bonaventure                   05 Bonaventure                   19361121      322A03 480365090000050998000005137011112Bonaventure                                            813 CSS René-Lévesque                  004Bonaventure                                            1111RLS de la Baie-des-Chaleurs                                                            
105025CTHope                                                      R                                 04Bonaventure No 1              04Bonaventure                   11Gaspésie--Îles-de-la-Madeleine02Gaspésie                      004Bonaventure                   05Bonaventure                   11Gaspésie--Îles-de-la-Madeleine0422011Gaspésie--Îles-de-la-Madeleine05 Bonaventure                   882 CS Eastern Shores             111  RTS de la Gaspésie                                          00000608                                   850Bonaventure                   05 Bonaventure                   18550701      322A03 480265120000070826000007116711112Bonaventure                                            813 CSS René-Lévesque                  004Bonaventure                                            1111RLS de la Baie-des-Chaleurs                                                            
105032V Paspébiac                                                 R                                 04Bonaventure No 1              04Bonaventure                   11Gaspésie--Îles-de-la-Madeleine02Gaspésie                      004Bonaventure                   05Bonaventure                   11Gaspésie--Îles-de-la-Madeleine0424011Gaspésie--Îles-de-la-Madeleine05 Bonaventure                   882 CS Eastern Shores             111  RTS de la Gaspésie                                          00003123                                   850Bonaventure                   05 Bonaventure                   19970820G97-34222A03 480165140000094990000009603611112Bonaventure                                            813 CSS René-Lévesque                  004Bonaventure                                            1111RLS de la Baie-des-Chaleurs                                                            
105040M New Carlisle                                              R                                 04Bonaventure No 1              04Bonaventure                   11Gaspésie--Îles-de-la-Madeleine02Gaspésie                      004Bonaventure                   05Bonaventure                   11Gaspésie--Îles-de-la-Madeleine0426011Gaspésie--Îles-de-la-Madeleine05 Bonaventure                   882 CS Eastern Shores             111  RTS de la Gaspésie                                          00001343                                   850Bonaventure                   05 Bonaventure                   18770201      322A03 480065190000067099000006802911112Bonaventure                                            813 CSS René-Lévesque                  004Bonaventure                                            1111RLS de la Baie-des-Chaleurs                                                            
105045V Bonaventure                                               R                                 04Bonaventure No 1              04Bonaventure                   11Gaspésie--Îles-de-la-Madeleine02Gaspésie                      004Bonaventure                   05Bonaventure                   11Gaspésie--Îles-de-la-Madeleine0428011Gaspésie--Îles-de-la-Madeleine05 Bonaventure                   882 CS Eastern Shores             111  RTS de la Gaspésie                                          00002759                                   850Bonaventure                   05 Bonaventure                   18840101      222A03 480265290000104697000010798911112Bonaventure                                            813 CSS René-Lévesque                  004Bonaventure                                            1111RLS de la Baie-des-Chaleurs                                                            
105050M Saint-Elzéar                                              R                                 04Bonaventure No 1              04Bonaventure                   11Gaspésie--Îles-de-la-Madeleine02Gaspésie                      004Bonaventure                   05Bonaventure                   11Gaspésie--Îles-de-la-Madeleine0430011Gaspésie--Îles-de-la-Madeleine05 Bonaventure                   882 CS Eastern Shores             111  RTS de la Gaspésie                                          00000459                                   850Bonaventure                   05 Bonaventure                   19650101      322A03 480965230000206717000020861511112Bonaventure                                            813 CSS René-Lévesque                  004Bonaventure                                            1111RLS de la Baie-des-Chaleurs                                                            
105055P Saint-Siméon                                              R                                 04Bonaventure No 1              04Bonaventure                   11Gaspésie--Îles-de-la-Madeleine02Gaspésie                      004Bonaventure                   05Bonaventure                   11Gaspésie--Îles-de-la-Madeleine0431011Gaspésie--Îles-de-la-Madeleine05 Bonaventure                   882 CS Eastern Shores             111  RTS de la Gaspésie                                          00001256                                   850Bonaventure                   05 Bonaventure                   19150101      322A04 480465340000056659000005680411112Bonaventure                                            813 CSS René-Lévesque                  004Bonaventure                                            1111RLS de la Baie-des-Chaleurs                                                            
105060M Caplan                                                    R                                 04Bonaventure No 1              04Bonaventure                   11Gaspésie--Îles-de-la-Madeleine02Gaspésie                      004Bonaventure                   05Bonaventure                   11Gaspésie--Îles-de-la-Madeleine0433011Gaspésie--Îles-de-la-Madeleine05 Bonaventure                   882 CS Eastern Shores             111  RTS de la Gaspésie                                          00001942                                   850Bonaventure                   05 Bonaventure                   18750101      322A04 480665400000085583000008563211112Bonaventure                                            813 CSS René-Lévesque                  004Bonaventure                                            1111RLS de la Baie-des-Chaleurs                                                            
105065M Saint-Alphonse                                            R                                 04Bonaventure No 1              04Bonaventure                   11Gaspésie--Îles-de-la-Madeleine02Gaspésie                      004Bonaventure                   05Bonaventure                   11Gaspésie--Îles-de-la-Madeleine0434011Gaspésie--Îles-de-la-Madeleine05 Bonaventure                   882 CS Eastern Shores             111  RTS de la Gaspésie                                          00000731                                   850Bonaventure                   05 Bonaventure                   19030101      322A04 481165370000111648000011217311112Bonaventure                                            813 CSS René-Lévesque                  004Bonaventure                                            1111RLS de la Baie-des-Chaleurs                                                            
105070V New Richmond                                              R                                 04Bonaventure No 1              04Bonaventure                   11Gaspésie--Îles-de-la-Madeleine02Gaspésie                      004Bonaventure                   05Bonaventure                   11Gaspésie--Îles-de-la-Madeleine0436011Gaspésie--Îles-de-la-Madeleine05 Bonaventure                   882 CS Eastern Shores             111  RTS de la Gaspésie                                          00003859                                   850Bonaventure                   05 Bonaventure                   18550701      222A04 480965510000171906000019948511112Bonaventure                                            813 CSS René-Lévesque                  004Bonaventure                                            1111RLS de la Baie-des-Chaleurs                                                            
105077M Cascapédia--Saint-Jules                                   R                                 18Bonaventure No 2              04Bonaventure                   11Gaspésie--Îles-de-la-Madeleine02Gaspésie                      004Bonaventure                   05Bonaventure                   11Gaspésie--Îles-de-la-Madeleine0440011Gaspésie--Îles-de-la-Madeleine05 Bonaventure                   882 CS Eastern Shores             111  RTS de la Gaspésie                                          00000772                                   850Bonaventure                   05 Bonaventure                   19990602G99-22322A05 481565550000160424000016302911112Bonaventure                                            813 CSS René-Lévesque                  004Bonaventure                                            1111RLS de la Baie-des-Chaleurs                                                            
C05077M Cascapédia--Saint-Jules                                   R                                 18Bonaventure No 2              04Bonaventure                   11Gaspésie--Îles-de-la-Madeleine02Gaspésie                      004Bonaventure                   05Bonaventure                   11Gaspésie--Îles-de-la-Madeleine0440011Gaspésie--Îles-de-la-Madeleine05 Bonaventure                   882 CS Eastern Shores             111  RTS de la Gaspésie                                          00000772                                   04Bonaventure No 1                                                                                                                                                                                                                                                                                                                                                         
105902NORivière-Bonaventure                                       R                                 04Bonaventure No 1              04Bonaventure                   11Gaspésie--Îles-de-la-Madeleine02Gaspésie                      004Bonaventure                   05Bonaventure                   11Gaspésie--Îles-de-la-Madeleine0490911Gaspésie--Îles-de-la-Madeleine05 Bonaventure                   882 CS Eastern Shores             111  RTS de la Gaspésie                                          00000062                                   850Bonaventure                   05 Bonaventure                   18550701      322A05 482565370003063016000307705411112Bonaventure                                            813 CSS René-Lévesque                  004Bonaventure                                            1111RLS de la Baie-des-Chaleurs                                                            
C05902NORivière-Bonaventure                                       R                                 04Bonaventure No 1              04Bonaventure                   11Gaspésie--Îles-de-la-Madeleine02Gaspésie                      004Bonaventure                   05Bonaventure                   11Gaspésie--Îles-de-la-Madeleine0490911Gaspésie--Îles-de-la-Madeleine05 Bonaventure                   882 CS Eastern Shores             111  RTS de la Gaspésie                                          00000062                                   18Bonaventure No 2                                                                                                                                                                                                                                                                                                                                                         
106005M Maria                                                     R                                 18Bonaventure No 2              04Bonaventure                   11Gaspésie--Îles-de-la-Madeleine02Gaspésie                      004Bonaventure                   06Avignon                       11Gaspésie--Îles-de-la-Madeleine0446011Gaspésie--Îles-de-la-Madeleine06 Avignon                       882 CS Eastern Shores             111  RTS de la Gaspésie                                          00002760                                   850Bonaventure                   06 Avignon                       18550701      322A04 481065580000095483000009560711111Avignon                                                813 CSS René-Lévesque                  099Avignon                                                1111RLS de la Baie-des-Chaleurs                                                            
106013V Carleton-sur-Mer                                          R                                 18Bonaventure No 2              04Bonaventure                   11Gaspésie--Îles-de-la-Madeleine02Gaspésie                      004Bonaventure                   06Avignon                       11Gaspésie--Îles-de-la-Madeleine0449011Gaspésie--Îles-de-la-Madeleine06 Avignon                       882 CS Eastern Shores             111  RTS de la Gaspésie                                          00004226                                   850Bonaventure                   06 Avignon                       20001004G00-40222B01 480666070000216813000024580111111Avignon                                                813 CSS René-Lévesque                  099Avignon                                                1111RLS de la Baie-des-Chaleurs                                                            
106020M Nouvelle                                                  R                                 18Bonaventure No 2              04Bonaventure                   11Gaspésie--Îles-de-la-Madeleine02Gaspésie                      004Bonaventure                   06Avignon                       11Gaspésie--Îles-de-la-Madeleine0453011Gaspésie--Îles-de-la-Madeleine06 Avignon                       882 CS Eastern Shores             111  RTS de la Gaspésie                                          00001815                                   850Bonaventure                   06 Avignon                       19080101      322B01 480866180000235849000023722711111Avignon                                                813 CSS René-Lévesque                  099Avignon                                                1111RLS de la Baie-des-Chaleurs                                                            
106025M Escuminac                                                 R                                 18Bonaventure No 2              04Bonaventure                   11Gaspésie--Îles-de-la-Madeleine02Gaspésie                      004Bonaventure                   06Avignon                       11Gaspésie--Îles-de-la-Madeleine0456011Gaspésie--Îles-de-la-Madeleine06 Avignon                       882 CS Eastern Shores             111  RTS de la Gaspésie                                          00000620                                   850Bonaventure                   06 Avignon                       19080101      322B02 480466320000107905000010834011111Avignon                                                813 CSS René-Lévesque                  099Avignon                                                1111RLS de la Baie-des-Chaleurs                                                            
106030M Pointe-à-la-Croix                                         R                                 18Bonaventure No 2              04Bonaventure                   11Gaspésie--Îles-de-la-Madeleine02Gaspésie                      004Bonaventure                   06Avignon                       11Gaspésie--Îles-de-la-Madeleine0460011Gaspésie--Îles-de-la-Madeleine06 Avignon                       882 CS Eastern Shores             111  RTS de la Gaspésie                                          00001287                                   850Bonaventure                   06 Avignon                       19830507      322B02 480166410000393292000041533611111Avignon                                                813 CSS René-Lévesque                  099Avignon                                                1111RLS de la Baie-des-Chaleurs                                                            
606030M Pointe-à-la-Croix                                         R                                 18Bonaventure No 2              04Bonaventure                   11Gaspésie--Îles-de-la-Madeleine02Gaspésie                      004Bonaventure                   06Avignon                       11Gaspésie--Îles-de-la-Madeleine0460011Gaspésie--Îles-de-la-Madeleine06 Avignon                       882 CS Eastern Shores             111  RTS de la Gaspésie                                          00001287                                   330 Campbellton                                                                                                                                                                                                                                                                                                                                                            
C06030M Pointe-à-la-Croix                                         R                                 18Bonaventure No 2              04Bonaventure                   11Gaspésie--Îles-de-la-Madeleine02Gaspésie                      004Bonaventure                   06Avignon                       11Gaspésie--Îles-de-la-Madeleine0460011Gaspésie--Îles-de-la-Madeleine06 Avignon                       882 CS Eastern Shores             111  RTS de la Gaspésie                                          00001287                                   05Matapédia                                                                                                                                                                                                                                                                                                                                                                
D06030M Pointe-à-la-Croix                                         R                                 18Bonaventure No 2              04Bonaventure                   11Gaspésie--Îles-de-la-Madeleine02Gaspésie                      004Bonaventure                   06Avignon                       11Gaspésie--Îles-de-la-Madeleine0460011Gaspésie--Îles-de-la-Madeleine06 Avignon                       882 CS Eastern Shores             111  RTS de la Gaspésie                                          00001287                                   07Rimouski                                                                                                                                                                                                                                                                                                                                                                 
106035M Ristigouche-Sud-Est                                       R                                 18Bonaventure No 2              04Bonaventure                   11Gaspésie--Îles-de-la-Madeleine02Gaspésie                      004Bonaventure                   06Avignon                       11Gaspésie--Îles-de-la-Madeleine0462011Gaspésie--Îles-de-la-Madeleine06 Avignon                       882 CS Eastern Shores             111  RTS de la Gaspésie                                          00000176                                   850Bonaventure                   06 Avignon                       18550701      322B02 480066460000051730000005397911111Avignon                                                813 CSS René-Lévesque                  099Avignon                                                1111RLS de la Baie-des-Chaleurs                                                            
106040M Saint-André-de-Restigouche                                R                                 18Bonaventure No 2              04Bonaventure                   11Gaspésie--Îles-de-la-Madeleine02Gaspésie                      004Bonaventure                   06Avignon                       11Gaspésie--Îles-de-la-Madeleine0464011Gaspésie--Îles-de-la-Madeleine06 Avignon                       882 CS Eastern Shores             111  RTS de la Gaspésie                                          00000145                                   850Bonaventure                   06 Avignon                       19070101      322B02 480366560000144063000014414111111Avignon                                                813 CSS René-Lévesque                  099Avignon                                                1111RLS de la Baie-des-Chaleurs                                                            
106045M Matapédia                                                 R                                 18Bonaventure No 2              04Bonaventure                   11Gaspésie--Îles-de-la-Madeleine02Gaspésie                      004Bonaventure                   06Avignon                       11Gaspésie--Îles-de-la-Madeleine0465011Gaspésie--Îles-de-la-Madeleine06 Avignon                       882 CS Eastern Shores             111  RTS de la Gaspésie                                          00000581                                   850Bonaventure                   06 Avignon                       19060101      321O15 475866560000070303000007096711111Avignon                                                813 CSS René-Lévesque                  099Avignon                                                1111RLS de la Baie-des-Chaleurs                                                            
106050M Saint-Alexis-de-Matapédia                                 R                                 18Bonaventure No 2              04Bonaventure                   11Gaspésie--Îles-de-la-Madeleine02Gaspésie                      004Bonaventure                   06Avignon                       11Gaspésie--Îles-de-la-Madeleine0466011Gaspésie--Îles-de-la-Madeleine06 Avignon                       882 CS Eastern Shores             111  RTS de la Gaspésie                                          00000513                                   850Bonaventure                   06 Avignon                       18550701      321O14 475867030000085021000008506811111Avignon                                                813 CSS René-Lévesque                  099Avignon                                                1111RLS de la Baie-des-Chaleurs                                                            
106055M Saint-François-d'Assise                                   R                                 18Bonaventure No 2              04Bonaventure                   11Gaspésie--Îles-de-la-Madeleine02Gaspésie                      004Bonaventure                   06Avignon                       11Gaspésie--Îles-de-la-Madeleine0468011Gaspésie--Îles-de-la-Madeleine06 Avignon                       882 CS Eastern Shores             111  RTS de la Gaspésie                                          00000669                                   850Bonaventure                   06 Avignon                       19260903      321O14 475867090000178628000017973211111Avignon                                                813 CSS René-Lévesque                  099Avignon                                                1111RLS de la Baie-des-Chaleurs                                                            
106060M L'Ascension-de-Patapédia                                  R                                 18Bonaventure No 2              04Bonaventure                   11Gaspésie--Îles-de-la-Madeleine02Gaspésie                      004Bonaventure                   06Avignon                       11Gaspésie--Îles-de-la-Madeleine0470011Gaspésie--Îles-de-la-Madeleine06 Avignon                       882 CS Eastern Shores             111  RTS de la Gaspésie                                          00000161                                   850Bonaventure                   06 Avignon                       19680101      321O14 475567140000096458000009708811111Avignon                                                813 CSS René-Lévesque                  099Avignon                                                1111RLS de la Baie-des-Chaleurs                                                            
106802R Gesgapegiag                                               R                                 18Bonaventure No 2              04Bonaventure                   11Gaspésie--Îles-de-la-Madeleine02Gaspésie                      004Bonaventure                   06Avignon                       11Gaspésie--Îles-de-la-Madeleine0482011Gaspésie--Îles-de-la-Madeleine06 Avignon                       882 CS Eastern Shores             111  RTS de la Gaspésie                                          00000665                                   850Bonaventure                                                    18550701      522A04 481165550000002212000000221411111Avignon                                                813 CSS René-Lévesque                  099Avignon                                                1111RLS de la Baie-des-Chaleurs                                                            
106804R Listuguj                                                  R                                 18Bonaventure No 2              04Bonaventure                   11Gaspésie--Îles-de-la-Madeleine02Gaspésie                      004Bonaventure                   06Avignon                       11Gaspésie--Îles-de-la-Madeleine0486011Gaspésie--Îles-de-la-Madeleine06 Avignon                       882 CS Eastern Shores             111  RTS de la Gaspésie                                          00001647                                   850Bonaventure                                                    18550701      522B02 480066420000043109000004341211111Avignon                                                813 CSS René-Lévesque                  099Avignon                                                1111RLS de la Baie-des-Chaleurs                                                            
606804R Listuguj                                                  R                                 18Bonaventure No 2              04Bonaventure                   11Gaspésie--Îles-de-la-Madeleine02Gaspésie                      004Bonaventure                   06Avignon                       11Gaspésie--Îles-de-la-Madeleine0486011Gaspésie--Îles-de-la-Madeleine06 Avignon                       882 CS Eastern Shores             111  RTS de la Gaspésie                                          00001647                                   330 Campbellton                                                                                                                                                                                                                                                                                                                                                            
106902NORivière-Nouvelle                                          R                                 18Bonaventure No 2              04Bonaventure                   11Gaspésie--Îles-de-la-Madeleine02Gaspésie                      004Bonaventure                   06Avignon                       11Gaspésie--Îles-de-la-Madeleine0491911Gaspésie--Îles-de-la-Madeleine06 Avignon                       882 CS Eastern Shores             111  RTS de la Gaspésie                                          00000000                                   850Bonaventure                   06 Avignon                       18550701      322B07 481966340001086088000108689111111Avignon                                                813 CSS René-Lévesque                  099Avignon                                                1111RLS de la Baie-des-Chaleurs                                                            
106904NORuisseau-Ferguson                                         R                                 18Bonaventure No 2              04Bonaventure                   11Gaspésie--Îles-de-la-Madeleine02Gaspésie                      004Bonaventure                   06Avignon                       11Gaspésie--Îles-de-la-Madeleine0495011Gaspésie--Îles-de-la-Madeleine06 Avignon                       882 CS Eastern Shores             111  RTS de la Gaspésie                                          00000000                                   850Bonaventure                   06 Avignon                       18550701      322B03 480167270000676737000067836211111Avignon                                                813 CSS René-Lévesque                  099Avignon                                                1111RLS de la Baie-des-Chaleurs                                                            
107005M Sainte-Marguerite-Marie                                   R                                 05Matapédia                     07Rimouski                      01Bas-Saint-Laurent             02Gaspésie                      005Matapédia                     07La Matapédia                  01Bas-Saint-Laurent             0520001Bas-Saint-Laurent             07 La Matapédia                  882 CS Eastern Shores             011  RTS du Bas-Saint-Laurent                                    00000181                                   842Matane-Matapédia-Mitis        07 La Matapédia                  19570101      322B06 481967040000086612000008666001181La Matapédia                                           711 CSS des Monts-et-Marées            058Amqui                                                  0118RLS de La Matapédia                                                                    
107010M Sainte-Florence                                           R                                 05Matapédia                     07Rimouski                      01Bas-Saint-Laurent             02Gaspésie                      005Matapédia                     07La Matapédia                  01Bas-Saint-Laurent             0522001Bas-Saint-Laurent             07 La Matapédia                  882 CS Eastern Shores             011  RTS du Bas-Saint-Laurent                                    00000371                                   842Matane-Matapédia-Mitis        07 La Matapédia                  19120101      322B06 481567140000102756000010325201181La Matapédia                                           711 CSS des Monts-et-Marées            058Amqui                                                  0118RLS de La Matapédia                                                                    
107018V Causapscal                                                R                                 05Matapédia                     07Rimouski                      01Bas-Saint-Laurent             02Gaspésie                      005Matapédia                     07La Matapédia                  01Bas-Saint-Laurent             0525001Bas-Saint-Laurent             07 La Matapédia                  882 CS Eastern Shores             011  RTS du Bas-Saint-Laurent                                    00002150                                   842Matane-Matapédia-Mitis        07 La Matapédia                  19971231G97-55222B06 482167130000161196000016234301181La Matapédia                                           711 CSS des Monts-et-Marées            058Amqui                                                  0118RLS de La Matapédia                                                                    
107025M Albertville                                               R                                 05Matapédia                     07Rimouski                      01Bas-Saint-Laurent             02Gaspésie                      005Matapédia                     07La Matapédia                  01Bas-Saint-Laurent             0528001Bas-Saint-Laurent             07 La Matapédia                  882 CS Eastern Shores             011  RTS du Bas-Saint-Laurent                                    00000254                                   842Matane-Matapédia-Mitis        07 La Matapédia                  19301127      322B06 481967210000103569000010471301181La Matapédia                                           711 CSS des Monts-et-Marées            058Amqui                                                  0118RLS de La Matapédia                                                                    
107030P Saint-Léon-le-Grand                                       R                                 05Matapédia                     07Rimouski                      01Bas-Saint-Laurent             02Gaspésie                      005Matapédia                     07La Matapédia                  01Bas-Saint-Laurent             0538001Bas-Saint-Laurent             07 La Matapédia                  882 CS Eastern Shores             011  RTS du Bas-Saint-Laurent                                    00000986                                   842Matane-Matapédia-Mitis        07 La Matapédia                  19040101      322B05 482267300000128517000012953701181La Matapédia                                           711 CSS des Monts-et-Marées            058Amqui                                                  0118RLS de La Matapédia                                                                    
107035P Saint-Zénon-du-Lac-Humqui                                 R                                 05Matapédia                     07Rimouski                      01Bas-Saint-Laurent             02Gaspésie                      005Matapédia                     07La Matapédia                  01Bas-Saint-Laurent             0536001Bas-Saint-Laurent             07 La Matapédia                  882 CS Eastern Shores             011  RTS du Bas-Saint-Laurent                                    00000366                                   842Matane-Matapédia-Mitis        07 La Matapédia                  19200428      322B05 481867340000112800000011496201181La Matapédia                                           711 CSS des Monts-et-Marées            058Amqui                                                  0118RLS de La Matapédia                                                                    
107040P Sainte-Irène                                              R                                 05Matapédia                     07Rimouski                      01Bas-Saint-Laurent             02Gaspésie                      005Matapédia                     07La Matapédia                  01Bas-Saint-Laurent             0540001Bas-Saint-Laurent             07 La Matapédia                  882 CS Eastern Shores             011  RTS du Bas-Saint-Laurent                                    00000401                                   842Matane-Matapédia-Mitis        07 La Matapédia                  19530101      322B05 482667350000134531000013643201181La Matapédia                                           711 CSS des Monts-et-Marées            058Amqui                                                  0118RLS de La Matapédia                                                                    
107047V Amqui                                                     R                                 05Matapédia                     07Rimouski                      01Bas-Saint-Laurent             02Gaspésie                      005Matapédia                     07La Matapédia                  01Bas-Saint-Laurent             0543001Bas-Saint-Laurent             07 La Matapédia                  882 CS Eastern Shores             011  RTS du Bas-Saint-Laurent                                    00006116                                   842Matane-Matapédia-Mitis        07 La Matapédia                  19910116G91203222B06 482767250000122406000012826901181La Matapédia                                           711 CSS des Monts-et-Marées            058Amqui                                                  0118RLS de La Matapédia                                                                    
107057M Lac-au-Saumon                                             R                                 05Matapédia                     07Rimouski                      01Bas-Saint-Laurent             02Gaspésie                      005Matapédia                     07La Matapédia                  01Bas-Saint-Laurent             0547001Bas-Saint-Laurent             07 La Matapédia                  882 CS Eastern Shores             011  RTS du Bas-Saint-Laurent                                    00001475                                   842Matane-Matapédia-Mitis        07 La Matapédia                  19971217G97-52322B06 482567200000080623000008503501181La Matapédia                                           711 CSS des Monts-et-Marées            058Amqui                                                  0118RLS de La Matapédia                                                                    
107065P Saint-Alexandre-des-Lacs                                  R                                 05Matapédia                     07Rimouski                      01Bas-Saint-Laurent             02Gaspésie                      005Matapédia                     07La Matapédia                  01Bas-Saint-Laurent             0550001Bas-Saint-Laurent             07 La Matapédia                  882 CS Eastern Shores             011  RTS du Bas-Saint-Laurent                                    00000307                                   842Matane-Matapédia-Mitis        07 La Matapédia                  19650101      322B06 482867180000089834000009155101181La Matapédia                                           711 CSS des Monts-et-Marées            058Amqui                                                  0118RLS de La Matapédia                                                                    
107070P Saint-Tharcisius                                          R                                 05Matapédia                     07Rimouski                      01Bas-Saint-Laurent             02Gaspésie                      005Matapédia                     07La Matapédia                  01Bas-Saint-Laurent             0552001Bas-Saint-Laurent             07 La Matapédia                  882 CS Eastern Shores             011  RTS du Bas-Saint-Laurent                                    00000425                                   842Matane-Matapédia-Mitis        07 La Matapédia                  19371204      322B11 483267200000079039000007935201181La Matapédia                                           711 CSS des Monts-et-Marées            058Amqui                                                  0118RLS de La Matapédia                                                                    
107075M Saint-Vianney                                             R                                 05Matapédia                     07Rimouski                      01Bas-Saint-Laurent             02Gaspésie                      005Matapédia                     07La Matapédia                  01Bas-Saint-Laurent             0554001Bas-Saint-Laurent             07 La Matapédia                  882 CS Eastern Shores             011  RTS du Bas-Saint-Laurent                                    00000438                                   842Matane-Matapédia-Mitis        07 La Matapédia                  19260827      322B11 483767240000145381000014617801181La Matapédia                                           711 CSS des Monts-et-Marées            058Amqui                                                  0118RLS de La Matapédia                                                                    
107080M Val-Brillant                                              R                                 05Matapédia                     07Rimouski                      01Bas-Saint-Laurent             02Gaspésie                      005Matapédia                     07La Matapédia                  01Bas-Saint-Laurent             0557001Bas-Saint-Laurent             07 La Matapédia                  882 CS Eastern Shores             011  RTS du Bas-Saint-Laurent                                    00000947                                   842Matane-Matapédia-Mitis        07 La Matapédia                  19861220      322B12 483267320000077897000009171301181La Matapédia                                           711 CSS des Monts-et-Marées            058Amqui                                                  0118RLS de La Matapédia                                                                    
107085M Sayabec                                                   R                                 05Matapédia                     07Rimouski                      01Bas-Saint-Laurent             02Gaspésie                      005Matapédia                     07La Matapédia                  01Bas-Saint-Laurent             0561001Bas-Saint-Laurent             07 La Matapédia                  882 CS Eastern Shores             011  RTS du Bas-Saint-Laurent                                    00001772                                   842Matane-Matapédia-Mitis        07 La Matapédia                  19821224      322B12 483367410000131344000014031801181La Matapédia                                           711 CSS des Monts-et-Marées            058Amqui                                                  0118RLS de La Matapédia                                                                    
107090P Saint-Cléophas                                            R                                 05Matapédia                     07Rimouski                      01Bas-Saint-Laurent             02Gaspésie                      005Matapédia                     07La Matapédia                  01Bas-Saint-Laurent             0564001Bas-Saint-Laurent             07 La Matapédia                  882 CS Eastern Shores             011  RTS du Bas-Saint-Laurent                                    00000317                                   842Matane-Matapédia-Mitis        07 La Matapédia                  19210519      322B05 482967440000097837000009849201181La Matapédia                                           711 CSS des Monts-et-Marées            058Amqui                                                  0118RLS de La Matapédia                                                                    
107095P Saint-Moïse                                               R                                 05Matapédia                     07Rimouski                      01Bas-Saint-Laurent             02Gaspésie                      005Matapédia                     07La Matapédia                  01Bas-Saint-Laurent             0570001Bas-Saint-Laurent             07 La Matapédia                  882 CS Eastern Shores             011  RTS du Bas-Saint-Laurent                                    00000537                                   842Matane-Matapédia-Mitis        07 La Matapédia                  18780101      322B12 483367510000110246000011195601181La Matapédia                                           711 CSS des Monts-et-Marées            058Amqui                                                  0118RLS de La Matapédia                                                                    
107100VLSaint-Noël                                                R                                 05Matapédia                     07Rimouski                      01Bas-Saint-Laurent             02Gaspésie                      005Matapédia                     07La Matapédia                  01Bas-Saint-Laurent             0572001Bas-Saint-Laurent             07 La Matapédia                  882 CS Eastern Shores             011  RTS du Bas-Saint-Laurent                                    00000374                                   842Matane-Matapédia-Mitis        07 La Matapédia                  19061002      322B12 483567500000044480000004525901181La Matapédia                                           711 CSS des Monts-et-Marées            058Amqui                                                  0118RLS de La Matapédia                                                                    
107105P Saint-Damase                                              R                                 05Matapédia                     07Rimouski                      01Bas-Saint-Laurent             02Gaspésie                      005Matapédia                     07La Matapédia                  01Bas-Saint-Laurent             0574001Bas-Saint-Laurent             07 La Matapédia                  882 CS Eastern Shores             011  RTS du Bas-Saint-Laurent                                    00000389                                   842Matane-Matapédia-Mitis        07 La Matapédia                  18860101      322B12 483967490000116217000011962701181La Matapédia                                           711 CSS des Monts-et-Marées            058Amqui                                                  0118RLS de La Matapédia                                                                    
107902NORouthierville                                             R                                 05Matapédia                     07Rimouski                      01Bas-Saint-Laurent             02Gaspésie                      004Bonaventure                   07La Matapédia                  01Bas-Saint-Laurent             0497001Bas-Saint-Laurent             07 La Matapédia                  882 CS Eastern Shores             011  RTS du Bas-Saint-Laurent                                    00000017                                   842Matane-Matapédia-Mitis        07 La Matapédia                  18550701      322B03 481067060000627469000063051901181La Matapédia                                           711 CSS des Monts-et-Marées            058Amqui                                                  0118RLS de La Matapédia                                                                    
107904NORivière-Vaseuse                                           R                                 05Matapédia                     07Rimouski                      01Bas-Saint-Laurent             02Gaspésie                      005Matapédia                     07La Matapédia                  01Bas-Saint-Laurent             0590901Bas-Saint-Laurent             07 La Matapédia                  882 CS Eastern Shores             011  RTS du Bas-Saint-Laurent                                    00000000                                   842Matane-Matapédia-Mitis        07 La Matapédia                  18550701      322B03 481367280000275863000027628901181La Matapédia                                           711 CSS des Monts-et-Marées            058Amqui                                                  0118RLS de La Matapédia                                                                    
107906NORivière-Patapédia-Est                                     R                                 07Rimouski                      07Rimouski                      01Bas-Saint-Laurent             03Bas-Saint-Laurent             007Rimouski                      07La Matapédia                  01Bas-Saint-Laurent             0790901Bas-Saint-Laurent             07 La Matapédia                  882 CS Eastern Shores             011  RTS du Bas-Saint-Laurent                                    00000000                                   842Matane-Matapédia-Mitis        07 La Matapédia                  18550701      322B04 480867380000015595000001564501181La Matapédia                                           711 CSS des Monts-et-Marées            058Amqui                                                  0118RLS de La Matapédia                                                                    
107908NOLac-Casault                                               R                                 05Matapédia                     07Rimouski                      01Bas-Saint-Laurent             02Gaspésie                      005Matapédia                     07La Matapédia                  01Bas-Saint-Laurent             0592001Bas-Saint-Laurent             07 La Matapédia                  882 CS Eastern Shores             011  RTS du Bas-Saint-Laurent                                    00000010                                   842Matane-Matapédia-Mitis        07 La Matapédia                  18550701      322B07 482966380001425353000143526701181La Matapédia                                           711 CSS des Monts-et-Marées            058Amqui                                                  0118RLS de La Matapédia                                                                    
107910NORuisseau-des-Mineurs                                      R                                 06Matane                        07Rimouski                      01Bas-Saint-Laurent             02Gaspésie                      006Matane                        07La Matapédia                  01Bas-Saint-Laurent             0690901Bas-Saint-Laurent             07 La Matapédia                  882 CS Eastern Shores             011  RTS du Bas-Saint-Laurent                                    00000000                                   842Matane-Matapédia-Mitis        07 La Matapédia                  18550701      322B10 483666410000937084000093994401181La Matapédia                                           711 CSS des Monts-et-Marées            058Amqui                                                  0118RLS de La Matapédia                                                                    
107912NOLac-Alfred                                                R                                 05Matapédia                     07Rimouski                      01Bas-Saint-Laurent             02Gaspésie                      005Matapédia                     07La Matapédia                  01Bas-Saint-Laurent             0592901Bas-Saint-Laurent             07 La Matapédia                  882 CS Eastern Shores             011  RTS du Bas-Saint-Laurent                                    00000000                                   842Matane-Matapédia-Mitis        07 La Matapédia                  18550701      322B05 482367440000076998000007706401181La Matapédia                                           711 CSS des Monts-et-Marées            058Amqui                                                  0118RLS de La Matapédia                                                                    
107914NOLac-Matapédia                                             R                                 05Matapédia                     07Rimouski                      01Bas-Saint-Laurent             02Gaspésie                      005Matapédia                     07La Matapédia                  01Bas-Saint-Laurent             0597001Bas-Saint-Laurent             07 La Matapédia                  882 CS Eastern Shores             011  RTS du Bas-Saint-Laurent                                    00000009                                   842Matane-Matapédia-Mitis        07 La Matapédia                  18550701      322B12 483467300000070295000008333501181La Matapédia                                           711 CSS des Monts-et-Marées            058Amqui                                                  0118RLS de La Matapédia                                                                    
108005M Les Méchins                                               R                                 06Matane                        07Rimouski                      01Bas-Saint-Laurent             02Gaspésie                      006Matane                        08La Matanie                    01Bas-Saint-Laurent             0630001Bas-Saint-Laurent             08 La Matanie                    882 CS Eastern Shores             011  RTS du Bas-Saint-Laurent                                    00000965                                   842Matane-Matapédia-Mitis        08 La Matanie                    19821127      322B15 485966580000441156000047423801171Matane                                                 711 CSS des Monts-et-Marées            021Matane                                                 0117RLS de Matane                                                                          
108010P Saint-Jean-de-Cherbourg                                   R                                 06Matane                        07Rimouski                      01Bas-Saint-Laurent             02Gaspésie                      006Matane                        08La Matanie                    01Bas-Saint-Laurent             0638001Bas-Saint-Laurent             08 La Matanie                    882 CS Eastern Shores             011  RTS du Bas-Saint-Laurent                                    00000173                                   842Matane-Matapédia-Mitis        08 La Matanie                    19540501      322B14 485167060000113949000011411701171Matane                                                 711 CSS des Monts-et-Marées            021Matane                                                 0117RLS de Matane                                                                          
108015M Grosses-Roches                                            R                                 06Matane                        07Rimouski                      01Bas-Saint-Laurent             02Gaspésie                      006Matane                        08La Matanie                    01Bas-Saint-Laurent             0640001Bas-Saint-Laurent             08 La Matanie                    882 CS Eastern Shores             011  RTS du Bas-Saint-Laurent                                    00000388                                   842Matane-Matapédia-Mitis        08 La Matanie                    19390819      322B14 485667100000063625000006395401171Matane                                                 711 CSS des Monts-et-Marées            021Matane                                                 0117RLS de Matane                                                                          
108023M Sainte-Félicité                                           R                                 06Matane                        07Rimouski                      01Bas-Saint-Laurent             02Gaspésie                      006Matane                        08La Matanie                    01Bas-Saint-Laurent             0645001Bas-Saint-Laurent             08 La Matanie                    882 CS Eastern Shores             011  RTS du Bas-Saint-Laurent                                    00001074                                   842Matane-Matapédia-Mitis        08 La Matanie                    19960110G96-02322B14 485367200000091319000009146901171Matane                                                 711 CSS des Monts-et-Marées            021Matane                                                 0117RLS de Matane                                                                          
608023M Sainte-Félicité                                           R                                 06Matane                        07Rimouski                      01Bas-Saint-Laurent             02Gaspésie                      006Matane                        08La Matanie                    01Bas-Saint-Laurent             0645001Bas-Saint-Laurent             08 La Matanie                    882 CS Eastern Shores             011  RTS du Bas-Saint-Laurent                                    00001074                                   403 Matane                                                                                                                                                                                                                                                                                                                                                                 
108030P Saint-Adelme                                              R                                 06Matane                        07Rimouski                      01Bas-Saint-Laurent             02Gaspésie                      006Matane                        08La Matanie                    01Bas-Saint-Laurent             0648001Bas-Saint-Laurent             08 La Matanie                    882 CS Eastern Shores             011  RTS du Bas-Saint-Laurent                                    00000488                                   842Matane-Matapédia-Mitis        08 La Matanie                    19330909      322B14 484967190000100704000010144001171Matane                                                 711 CSS des Monts-et-Marées            021Matane                                                 0117RLS de Matane                                                                          
608030P Saint-Adelme                                              R                                 06Matane                        07Rimouski                      01Bas-Saint-Laurent             02Gaspésie                      006Matane                        08La Matanie                    01Bas-Saint-Laurent             0648001Bas-Saint-Laurent             08 La Matanie                    882 CS Eastern Shores             011  RTS du Bas-Saint-Laurent                                    00000488                                   403 Matane                                                                                                                                                                                                                                                                                                                                                                 
108035M Saint-René-de-Matane                                      R                                 06Matane                        07Rimouski                      01Bas-Saint-Laurent             02Gaspésie                      006Matane                        08La Matanie                    01Bas-Saint-Laurent             0649001Bas-Saint-Laurent             08 La Matanie                    882 CS Eastern Shores             011  RTS du Bas-Saint-Laurent                                    00000981                                   842Matane-Matapédia-Mitis        08 La Matanie                    19821218      322B11 484267230000256193000025902001171Matane                                                 711 CSS des Monts-et-Marées            021Matane                                                 0117RLS de Matane                                                                          
608035M Saint-René-de-Matane                                      R                                 06Matane                        07Rimouski                      01Bas-Saint-Laurent             02Gaspésie                      006Matane                        08La Matanie                    01Bas-Saint-Laurent             0649001Bas-Saint-Laurent             08 La Matanie                    882 CS Eastern Shores             011  RTS du Bas-Saint-Laurent                                    00000981                                   403 Matane                                                                                                                                                                                                                                                                                                                                                                 
108040M Sainte-Paule                                              R                                 06Matane                        07Rimouski                      01Bas-Saint-Laurent             02Gaspésie                      006Matane                        08La Matanie                    01Bas-Saint-Laurent             0654001Bas-Saint-Laurent             08 La Matanie                    882 CS Eastern Shores             011  RTS du Bas-Saint-Laurent                                    00000253                                   842Matane-Matapédia-Mitis        08 La Matanie                    19680101      322B12 483967330000084451000008819101171Matane                                                 711 CSS des Monts-et-Marées            021Matane                                                 0117RLS de Matane                                                                          
C08040M Sainte-Paule                                              R                                 06Matane                        07Rimouski                      01Bas-Saint-Laurent             02Gaspésie                      006Matane                        08La Matanie                    01Bas-Saint-Laurent             0654001Bas-Saint-Laurent             08 La Matanie                    882 CS Eastern Shores             011  RTS du Bas-Saint-Laurent                                    00000253                                   05Matapédia                                                                                                                                                                                                                                                                                                                                                                
108053V Matane                                                    R                                 06Matane                        07Rimouski                      01Bas-Saint-Laurent             02Gaspésie                      006Matane                        08La Matanie                    01Bas-Saint-Laurent             0659001Bas-Saint-Laurent             08 La Matanie                    882 CS Eastern Shores             011  RTS du Bas-Saint-Laurent                                    00014257                                   842Matane-Matapédia-Mitis        08 La Matanie                    20010926G01-39222B13 485067310000195623000023042901171Matane                                                 711 CSS des Monts-et-Marées            021Matane                                                 0117RLS de Matane                                                                          
608053V Matane                                                    R                                 06Matane                        07Rimouski                      01Bas-Saint-Laurent             02Gaspésie                      006Matane                        08La Matanie                    01Bas-Saint-Laurent             0659001Bas-Saint-Laurent             08 La Matanie                    882 CS Eastern Shores             011  RTS du Bas-Saint-Laurent                                    00014257                                   403 Matane                                                                                                                                                                                                                                                                                                                                                                 
108065P Saint-Léandre                                             R                                 06Matane                        07Rimouski                      01Bas-Saint-Laurent             02Gaspésie                      006Matane                        08La Matanie                    01Bas-Saint-Laurent             0664001Bas-Saint-Laurent             08 La Matanie                    882 CS Eastern Shores             011  RTS du Bas-Saint-Laurent                                    00000365                                   842Matane-Matapédia-Mitis        08 La Matanie                    19130101      322B12 484367360000104248000010576101171Matane                                                 711 CSS des Monts-et-Marées            021Matane                                                 0117RLS de Matane                                                                          
608065P Saint-Léandre                                             R                                 06Matane                        07Rimouski                      01Bas-Saint-Laurent             02Gaspésie                      006Matane                        08La Matanie                    01Bas-Saint-Laurent             0664001Bas-Saint-Laurent             08 La Matanie                    882 CS Eastern Shores             011  RTS du Bas-Saint-Laurent                                    00000365                                   403 Matane                                                                                                                                                                                                                                                                                                                                                                 
108073M Saint-Ulric                                               R                                 06Matane                        07Rimouski                      01Bas-Saint-Laurent             02Gaspésie                      006Matane                        08La Matanie                    01Bas-Saint-Laurent             0667001Bas-Saint-Laurent             08 La Matanie                    882 CS Eastern Shores             011  RTS du Bas-Saint-Laurent                                    00001644                                   842Matane-Matapédia-Mitis        08 La Matanie                    20000112G00-02322B13 484767410000120112000012181001171Matane                                                 711 CSS des Monts-et-Marées            021Matane                                                 0117RLS de Matane                                                                          
608073M Saint-Ulric                                               R                                 06Matane                        07Rimouski                      01Bas-Saint-Laurent             02Gaspésie                      006Matane                        08La Matanie                    01Bas-Saint-Laurent             0667001Bas-Saint-Laurent             08 La Matanie                    882 CS Eastern Shores             011  RTS du Bas-Saint-Laurent                                    00001644                                   403 Matane                                                                                                                                                                                                                                                                                                                                                                 
